S01400004C6162324469676974616C322E73726563DF
S11300000C94B1000C94CE000C94CE000C94CE0051
S11300100C94CE000C94CE000C94CE000C94CE0024
S11300200C94CE000C94CE000C94CE000C94CE0014
S11300300C94CE000C94CE000C94CE000C94CE0004
S11300400C94CE000C94CE000C9479020C94CE0047
S11300500C94CE000C94F6000C94CE000C94CE00BC
S11300600C94CE000C94CE0000407A10F35A00A0F9
S1130070724E18090010A5D4E80000E8764817006D
S113008000E40B54020000CA9A3B000000E1F505AD
S1130090000080969800000040420F000000A086F7
S11300A001000000102700000000E8030000000029
S11300B06400000000000A000000000001000000CD
S11300C000002C76D888DC674F0823DFC1DFAE59E7
S11300D0E1B1B796E5E3E453C63AE651997696E87A
S11300E0E6C28426EB898C9B62ED407C6FFCEFBCFE
S11300F09C9F40F2BAA56FA5F490055A2AF75C9329
S11301006B6CF9676DC11BFCE0E40D47FEF520E65E
S1130110B500D0ED902E0300943577050080841E41
S1130120080000204E0A000000C80C333333330F9C
S1130130986E12831141EF8D2114893BE65516CF39
S1130140FEE6DB18D1844B381BF77C1D901DA4BB45
S1130150E424203284725E228100C9F124ECA1E5FA
S11301603D2711241FBECFEFD8E0DEBFCDBF11E085
S1130170A0E0B1E0E2E7FDE002C005900D92A231FB
S1130180B107D9F721E0A2E1B1E001C01D92AB3281
S1130190B207E1F70E94E1010C94B7060C94000049
S11301A0ECE7F0E0108280818064808380818F7727
S11301B08083808180628083EAE7F0E0108280811E
S11301C08760808380818860808380818068808369
S11301D00895ECE7F0E09081987F8770892B808305
S11301E0EAE7F0E080818064808308951F920F9293
S11301F00FB60F9211242F933F934F935F936F93F6
S11302007F938F939F93AF93BF93EF93FF938091CB
S1130210120181110BC08091790090E09093160136
S11302208093150181E08093120109C080917900C7
S113023090E0909314018093130110921201809125
S113024012010E94E900FF91EF91BF91AF919F913C
S11302508F917F916F915F914F913F912F910F906B
S11302600FBE0F901F9018959BB1282F30E0220FDE
S1130270331F220F331F9370292B2BB995B19C7F09
S11302808295869586958370892B85B987E893E155
S11302900197F1F700C00000089595B19B7F95B9CF
S11302A00E94340185B1886085B98BED95E0019792
S11302B0F1F700C0000085B1877F85B90895611109
S11302C002C0805801C080540E944D01089595B128
S11302D0946095B90E94340185B1886085B987EE30
S11302E093E00197F1F700C0000085B1877F85B9DD
S11302F00895CF93DF93EC0103C00E946701219618
S113030088818111FACFDF91CF9108958AB18C6FE2
S11303108AB984B18F6084B983ED90E30197F1F7D2
S113032000C0000088E30E944D0181EE94E0019733
S1130330F1F700C000008CE00E944D0181EE94E0D2
S11303400197F1F700C0000086E00E944D0181EEA4
S113035094E00197F1F700C0000081E00E944D0194
S113036081EE94E00197F1F700C000000895BC010C
S113037080E090E00E94FE0220E030E040EA50E499
S11303800E948C0320E030E04FE753E40E948C028B
S113039008958B3251F480911701909118010196C0
S11303A0909318018093170108958D3249F4809138
S11303B017019091180101979093180180931701E8
S11303C008950E94D0000E9486010E945D027894E4
S11303D060E081E00E945F0180E091E00E94790189
S11303E060E087E00E945F0184E091E00E9479016F
S11303F060E08DE00E945F0188E091E00E94790155
S113040080E00E94E90080911501909116010E94FC
S1130410B7014B015C0180911301909114010E947A
S1130420B7016B017C0161E080E00E945F010AE199
S113043011E021E044E0C501B4010E94F903C801C0
S11304400E9479018CE091E00E94790161E086E0EC
S11304500E945F0121E044E0C701B6010E94F90354
S1130460C8010E9479018CE091E00E94790161E069
S11304708DE00E945F0180911701909118014AE07C
S1130480B8010E941904C8010E9479018EE091E02C
S11304900E9479012FEF84E39CE02150804090403A
S11304A0E1F700C000000E946F02882309F4ABCF7B
S11304B00E9474020E94C901A6CF8AB18E7F8AB9B4
S11304C08AB182608AB91092C50087E68093C4001D
S11304D088E98093C10086E08093C20008958091EA
S11304E019011092190108951092190180912A019D
S11304F008951F920F920FB60F9211248F9380913B
S1130500C60080932A0181E0809319018F910F9096
S11305100FBE0F901F9018950E94A0020C945203D6
S11305200E944B0358F00E94440340F029F45F3FBB
S113053029F00C943B0351110C9486030C94410351
S11305400E94630368F39923B1F3552391F3951B38
S1130550550BBB27AA2762177307840738F09F5FE0
S11305605F4F220F331F441FAA1FA9F335D00E2E4D
S11305703AF0E0E832D091505040E695001CCAF7BA
S11305802BD0FE2F29D0660F771F881FBB1F26177D
S113059037074807AB07B0E809F0BB0B802DBF0154
S11305A0FF2793585F4F3AF09E3F510578F00C9423
S11305B03B030C9486035F3FE4F3983ED4F38695A3
S11305C077956795B795F7959F5FC9F7880F911D44
S11305D09695879597F90895E1E0660F771F881F30
S11305E0BB1F621773078407BA0720F0621B730BE3
S11305F0840BBA0BEE1F88F7E0950895E89409C0C0
S113060097FB3EF490958095709561957F4F8F4F41
S11306109F4F9923A9F0F92F96E9BB279395F69557
S1130620879577956795B795F111F8CFFAF4BB0FD5
S113063011F460FF1BC06F5F7F4F8F4F9F4F16C039
S1130640882311F096E911C0772321F09EE8872FC3
S1130650762F05C0662371F096E8862F70E060E07F
S11306602AF09A95660F771F881FDAF7880F9695F8
S1130670879597F9089597F99F6780E870E060E09F
S113068008959FEF80EC089500240A941616170627
S113069018060906089500240A941216130614066F
S11306A005060895092E0394000C11F4882352F0D2
S11306B0BB0F40F4BF2B11F460FF04C06F5F7F4F8A
S11306C08F4F9F4F089557FD9058440F551F59F071
S11306D05F3F71F04795880F97FB991F61F09F3F2B
S11306E079F087950895121613061406551FF2CF54
S11306F04695F1DF08C0161617061806991FF1CFA4
S113070086957105610508940895E894BB276627CA
S11307107727CB0197F908950E949F030C94520305
S11307200E94440338F00E944B0320F0952311F0FB
S11307300C943B030C94410311240C9486030E94F3
S1130740630370F3959FC1F3950F50E0551F629FAB
S1130750F001729FBB27F00DB11D639FAA27F00D16
S1130760B11DAA1F649F6627B00DA11D661F829F3D
S11307702227B00DA11D621F739FB00DA11D621F22
S1130780839FA00D611D221F749F3327A00D611D3F
S1130790231F849F600D211D822F762F6A2F112421
S11307A09F5750409AF0F1F088234AF0EE0FFF1F54
S11307B0BB1F661F771F881F91505040A9F79E3FAB
S11307C0510580F00C943B030C9486035F3FE4F3E3
S11307D0983ED4F3869577956795B795F795E79501
S11307E09F5FC1F7FE2B880F911D9695879597F90A
S11307F00895EF920F931F93CF93DF93E80147FD82
S113080002C034E001C034E1042E000C550B57FF44
S113081003C0519541955109E32E022F242FAE01B7
S11308200E943E04CE01DF91CF911F910F91EF9072
S11308300895BB274A3031F4992322F4BDE2909500
S113084081959F4F0C942504BB27FB015527AA27AC
S1130850880F991FAA1FA41710F0A41B8395505149
S1130860B9F7A05DAA3308F0A95DA193009779F7C1
S1130870B111B1931192CB010C947006A9E0B0E0D0
S1130880E4E4F4E00C9486066A01122FB02E2BE304
S1130890201720F0FF24F394F00E02C02CE3F22E74
S11308A00F2D27E0AE014F5F5F4F0E949805BC01FA
S11308B04981842F8970813031F0E1FC06C0E0FE6B
S11308C006C090E205C09DE203C09BE201C090E037
S11308D05E2D507143FF3CC0911102C083E001C002
S11308E084E0811718F4212F281B01C020E0511146
S11308F00BC0F601822F30E2882319F03193815026
S1130900FBCFC20ED11C20E0992329F0D6019C9381
S1130910F60131966F01C6010396E2FE0AC03EE479
S1130920D6013C9341E411964C93119712963C9353
S113093006C03EE6F601308341E641833283FC0182
S1130940322F40E2332309F442C041933150FACFAD
S113095042FF44C0911102C083E001C084E08117CA
S113096018F4212F281B01C020E051110BC0F601FF
S1130970822F30E2882319F031938150FBCFC20ECD
S1130980D11C20E0992329F0D6019C93F6013196DD
S11309906F01C6010396E2FE0BC039E4D6013C9315
S11309A03EE411963C93119736E412963C9307C0AB
S11309B039E6F60130833EE6318336E63283FC01C4
S11309C0322F40E2332319F041933150FBCFFC0125
S11309D0E20FF11D10828EEF9FEFA6C021E030E000
S11309E0911102C020E030E0161617061CF4FB013A
S11309F0319602C0E1E0F0E02E0F3F1FBB2021F052
S1130A00EB2DF0E0319602C0E0E0F0E02E0F3F1F46
S1130A10E12FF0E02E173F071CF4121B212F01C019
S1130A2020E08E2D887159F4F601822F30E288235C
S1130A3019F031938150FBCFC20ED11C20E09923D1
S1130A4029F0D6019C93F60131966F0151110BC028
S1130A50F601822F90E3882319F091938150FBCF04
S1130A60C20ED11C20E00F2D060F9A81342F307155
S1130A7044FF03C0913309F40150101624F40930E3
S1130A8018F008E001C001E0AB0177FF02C040E0CC
S1130A9050E0FB01E41BF50BA1E0B0E0AC0FBD1F7F
S1130AA0EA0FFB1F8EE2A82E4B01801A91080B2D32
S1130AB010E01195019511094F3FBFEF5B0721F439
S1130AC0D601AC9211966D01641775072CF084164B
S1130AD0950614F4818101C080E341505109319697
S1130AE0D60111967D014017510724F0D6018C934D
S1130AF06701E2CF6417750739F4963320F4953310
S1130B0019F4311101C081E3F6018083F701822FCA
S1130B1090E2882319F091938150FBCFF701E20F03
S1130B20F11D108280E090E02996ECE00C94A2067E
S1130B30283008F027E03327DA01990F311D87FDAB
S1130B40916000966105710539F432602E5F3D9322
S1130B5030E32A95E1F708959F3F30F0803871051E
S1130B60610509F03C5F3C5F3D93913008F080687B
S1130B70911DDF93CF931F930F93FF92EF92192F41
S1130B80987F9695E92F96959695E90FFF27EE5352
S1130B90FF4F99273327EE24FF24A701E70105908F
S1130BA00894079428F4360FE71EF81E491F511DB8
S1130BB0660F771F881F991F0694A1F70590079465
S1130BC028F4E70EF81E491F561FC11D770F881F12
S1130BD0991F661F0694A1F70590079428F4F80E50
S1130BE0491F561FC71FD11D880F991F661F771FE6
S1130BF00694A1F70590079420F4490F561FC71FC8
S1130C00D81F990F661F771F881F0694A9F7849130
S1130C101095177041F0D695C79557954795F79459
S1130C20E7941A95C1F7E8E6F0E0689415901591F9
S1130C3035916591959105907FE27395E118F10ADC
S1130C40430B560BC90BD009C0F7E10CF11E431F2F
S1130C50561FC91FD01D7EF4703311F48A95E6CF58
S1130C60E894015030F0080F0AF40027021708F442
S1130C70202F2395022F7A3328F079E37D932A9548
S1130C80E9F710C07D932A9589F6069497956795A0
S1130C90379517951794E118F10A430B560BC90BB6
S1130CA0D00998F023957E9173957A3308F070E318
S1130CB07C932013B8F77E9170617D9330F0839517
S1130CC071E37D9370E32A95E1F71124EF90FF908F
S1130CD00F911F91CF91DF91992787FD90950895EA
S1130CE0DC01FC01672F71917723E1F7329704C08F
S1130CF07C916D9370836291AE17BF07C8F308951A
S1130D002F923F924F925F926F927F928F929F9217
S1130D10AF92BF92CF92DF92EF92FF920F931F9305
S1130D20CF93DF93CDB7DEB7CA1BDB0B0FB6F894B6
S1130D30DEBF0FBECDBF09942A88398848885F84F6
S1130D406E847D848C849B84AA84B984C884DF8067
S1130D50EE80FD800C811B81AA81B981CE0FD11D4B
S1130D600FB6F894DEBF0FBECDBFED010895F89421
S1050D70FFCFAF
S1130D7256313A0056323A0053333A005600202094
S1050D8220004B
S9030000FC
